{
  "_format": "hh-sol-artifact-1",
  "contractName": "Emission",
  "sourceName": "contracts/Emission.sol",
  "abi": [
    {
      "anonymous": false,
      "inputs": [
        {
          "indexed": true,
          "internalType": "address",
          "name": "wallet_id",
          "type": "address"
        },
        {
          "indexed": true,
          "internalType": "string",
          "name": "carbon",
          "type": "string"
        },
        {
          "indexed": true,
          "internalType": "string",
          "name": "date",
          "type": "string"
        },
        {
          "indexed": false,
          "internalType": "uint256",
          "name": "fees",
          "type": "uint256"
        }
      ],
      "name": "EmissionData",
      "type": "event"
    },
    {
      "inputs": [
        {
          "internalType": "address payable",
          "name": "_govId",
          "type": "address"
        }
      ],
      "name": "collectFee",
      "outputs": [],
      "stateMutability": "nonpayable",
      "type": "function"
    },
    {
      "inputs": [
        {
          "internalType": "address",
          "name": "_walletID",
          "type": "address"
        },
        {
          "internalType": "string",
          "name": "_carbon",
          "type": "string"
        },
        {
          "internalType": "string",
          "name": "_date",
          "type": "string"
        }
      ],
      "name": "createEmissionData",
      "outputs": [],
      "stateMutability": "payable",
      "type": "function"
    },
    {
      "inputs": [],
      "name": "dataCount",
      "outputs": [
        {
          "internalType": "uint256",
          "name": "",
          "type": "uint256"
        }
      ],
      "stateMutability": "view",
      "type": "function"
    },
    {
      "inputs": [
        {
          "internalType": "uint256",
          "name": "",
          "type": "uint256"
        }
      ],
      "name": "emmis",
      "outputs": [
        {
          "internalType": "address",
          "name": "wallet_id",
          "type": "address"
        },
        {
          "internalType": "string",
          "name": "carbon",
          "type": "string"
        },
        {
          "internalType": "string",
          "name": "date",
          "type": "string"
        },
        {
          "internalType": "uint256",
          "name": "fees",
          "type": "uint256"
        }
      ],
      "stateMutability": "view",
      "type": "function"
    }
  ],
  "bytecode": "0x60806040526000805534801561001457600080fd5b50610dae806100246000396000f3fe60806040526004361061003f5760003560e01c80630c345808146100445780635da40c471461008457806369b59e75146100af5780638376aef0146100d8575b600080fd5b34801561005057600080fd5b5061006b60048036038101906100669190610500565b6100f4565b60405161007b949392919061060d565b60405180910390f35b34801561009057600080fd5b50610099610254565b6040516100a69190610660565b60405180910390f35b3480156100bb57600080fd5b506100d660048036038101906100d191906106b9565b61025a565b005b6100f260048036038101906100ed9190610847565b610312565b005b60016020528060005260406000206000915090508060000160009054906101000a900473ffffffffffffffffffffffffffffffffffffffff169080600101805461013d90610901565b80601f016020809104026020016040519081016040528092919081815260200182805461016990610901565b80156101b65780601f1061018b576101008083540402835291602001916101b6565b820191906000526020600020905b81548152906001019060200180831161019957829003601f168201915b5050505050908060020180546101cb90610901565b80601f01602080910402602001604051908101604052809291908181526020018280546101f790610901565b80156102445780601f1061021957610100808354040283529160200191610244565b820191906000526020600020905b81548152906001019060200180831161022757829003601f168201915b5050505050908060030154905084565b60005481565b8073ffffffffffffffffffffffffffffffffffffffff163373ffffffffffffffffffffffffffffffffffffffff16146102c8576040517f08c379a00000000000000000000000000000000000000000000000000000000081526004016102bf906109a4565b60405180910390fd5b8073ffffffffffffffffffffffffffffffffffffffff166108fc479081150290604051600060405180830381858888f1935050505015801561030e573d6000803e3d6000fd5b5050565b60003411610355576040517f08c379a000000000000000000000000000000000000000000000000000000000815260040161034c90610a10565b60405180910390fd5b60008081548092919061036790610a5f565b919050555060405180608001604052808473ffffffffffffffffffffffffffffffffffffffff16815260200183815260200182815260200134815250600160008054815260200190815260200160002060008201518160000160006101000a81548173ffffffffffffffffffffffffffffffffffffffff021916908373ffffffffffffffffffffffffffffffffffffffff16021790555060208201518160010190816104139190610c53565b5060408201518160020190816104299190610c53565b5060608201518160030155905050806040516104459190610d61565b60405180910390208260405161045b9190610d61565b60405180910390208473ffffffffffffffffffffffffffffffffffffffff167f7b825f9c39d0e80158251342653d426fd61076a41eb60ef6202376c66e10199c346040516104a99190610660565b60405180910390a4505050565b6000604051905090565b600080fd5b600080fd5b6000819050919050565b6104dd816104ca565b81146104e857600080fd5b50565b6000813590506104fa816104d4565b92915050565b600060208284031215610516576105156104c0565b5b6000610524848285016104eb565b91505092915050565b600073ffffffffffffffffffffffffffffffffffffffff82169050919050565b60006105588261052d565b9050919050565b6105688161054d565b82525050565b600081519050919050565b600082825260208201905092915050565b60005b838110156105a857808201518184015260208101905061058d565b60008484015250505050565b6000601f19601f8301169050919050565b60006105d08261056e565b6105da8185610579565b93506105ea81856020860161058a565b6105f3816105b4565b840191505092915050565b610607816104ca565b82525050565b6000608082019050610622600083018761055f565b818103602083015261063481866105c5565b9050818103604083015261064881856105c5565b905061065760608301846105fe565b95945050505050565b600060208201905061067560008301846105fe565b92915050565b60006106868261052d565b9050919050565b6106968161067b565b81146106a157600080fd5b50565b6000813590506106b38161068d565b92915050565b6000602082840312156106cf576106ce6104c0565b5b60006106dd848285016106a4565b91505092915050565b6106ef8161054d565b81146106fa57600080fd5b50565b60008135905061070c816106e6565b92915050565b600080fd5b600080fd5b7f4e487b7100000000000000000000000000000000000000000000000000000000600052604160045260246000fd5b610754826105b4565b810181811067ffffffffffffffff821117156107735761077261071c565b5b80604052505050565b60006107866104b6565b9050610792828261074b565b919050565b600067ffffffffffffffff8211156107b2576107b161071c565b5b6107bb826105b4565b9050602081019050919050565b82818337600083830152505050565b60006107ea6107e584610797565b61077c565b90508281526020810184848401111561080657610805610717565b5b6108118482856107c8565b509392505050565b600082601f83011261082e5761082d610712565b5b813561083e8482602086016107d7565b91505092915050565b6000806000606084860312156108605761085f6104c0565b5b600061086e868287016106fd565b935050602084013567ffffffffffffffff81111561088f5761088e6104c5565b5b61089b86828701610819565b925050604084013567ffffffffffffffff8111156108bc576108bb6104c5565b5b6108c886828701610819565b9150509250925092565b7f4e487b7100000000000000000000000000000000000000000000000000000000600052602260045260246000fd5b6000600282049050600182168061091957607f821691505b60208210810361092c5761092b6108d2565b5b50919050565b7f4f6e6c7920617574686f72697a656420656e746974792063616e20636f6c6c6560008201527f6374206665657300000000000000000000000000000000000000000000000000602082015250565b600061098e602783610579565b915061099982610932565b604082019050919050565b600060208201905081810360008301526109bd81610981565b9050919050565b7f466565732073686f756c642062652067726561746572207468616e2030000000600082015250565b60006109fa601d83610579565b9150610a05826109c4565b602082019050919050565b60006020820190508181036000830152610a29816109ed565b9050919050565b7f4e487b7100000000000000000000000000000000000000000000000000000000600052601160045260246000fd5b6000610a6a826104ca565b91507fffffffffffffffffffffffffffffffffffffffffffffffffffffffffffffffff8203610a9c57610a9b610a30565b5b600182019050919050565b60008190508160005260206000209050919050565b60006020601f8301049050919050565b600082821b905092915050565b600060088302610b097fffffffffffffffffffffffffffffffffffffffffffffffffffffffffffffffff82610acc565b610b138683610acc565b95508019841693508086168417925050509392505050565b6000819050919050565b6000610b50610b4b610b46846104ca565b610b2b565b6104ca565b9050919050565b6000819050919050565b610b6a83610b35565b610b7e610b7682610b57565b848454610ad9565b825550505050565b600090565b610b93610b86565b610b9e818484610b61565b505050565b5b81811015610bc257610bb7600082610b8b565b600181019050610ba4565b5050565b601f821115610c0757610bd881610aa7565b610be184610abc565b81016020851015610bf0578190505b610c04610bfc85610abc565b830182610ba3565b50505b505050565b600082821c905092915050565b6000610c2a60001984600802610c0c565b1980831691505092915050565b6000610c438383610c19565b9150826002028217905092915050565b610c5c8261056e565b67ffffffffffffffff811115610c7557610c7461071c565b5b610c7f8254610901565b610c8a828285610bc6565b600060209050601f831160018114610cbd5760008415610cab578287015190505b610cb58582610c37565b865550610d1d565b601f198416610ccb86610aa7565b60005b82811015610cf357848901518255600182019150602085019450602081019050610cce565b86831015610d105784890151610d0c601f891682610c19565b8355505b6001600288020188555050505b505050505050565b600081905092915050565b6000610d3b8261056e565b610d458185610d25565b9350610d5581856020860161058a565b80840191505092915050565b6000610d6d8284610d30565b91508190509291505056fea264697066735822122048e380bf8e5b6179a0e2bb6e1302dbab10f659696389db8674f1194ab88bc06664736f6c63430008180033",
  "linkReferences": {},
  "deployedLinkReferences": {}
}