{
  "_format": "hh-sol-artifact-1",
  "contractName": "GreenCreditToken",
  "sourceName": "contracts/GreenCreditToken.sol",
  "abi": [
    {
      "inputs": [
        {
          "internalType": "uint256",
          "name": "initTokenPrice",
          "type": "uint256"
        }
      ],
      "stateMutability": "nonpayable",
      "type": "constructor"
    },
    {
      "inputs": [
        {
          "internalType": "address",
          "name": "spender",
          "type": "address"
        },
        {
          "internalType": "uint256",
          "name": "allowance",
          "type": "uint256"
        },
        {
          "internalType": "uint256",
          "name": "needed",
          "type": "uint256"
        }
      ],
      "name": "ERC20InsufficientAllowance",
      "type": "error"
    },
    {
      "inputs": [
        {
          "internalType": "address",
          "name": "sender",
          "type": "address"
        },
        {
          "internalType": "uint256",
          "name": "balance",
          "type": "uint256"
        },
        {
          "internalType": "uint256",
          "name": "needed",
          "type": "uint256"
        }
      ],
      "name": "ERC20InsufficientBalance",
      "type": "error"
    },
    {
      "inputs": [
        {
          "internalType": "address",
          "name": "approver",
          "type": "address"
        }
      ],
      "name": "ERC20InvalidApprover",
      "type": "error"
    },
    {
      "inputs": [
        {
          "internalType": "address",
          "name": "receiver",
          "type": "address"
        }
      ],
      "name": "ERC20InvalidReceiver",
      "type": "error"
    },
    {
      "inputs": [
        {
          "internalType": "address",
          "name": "sender",
          "type": "address"
        }
      ],
      "name": "ERC20InvalidSender",
      "type": "error"
    },
    {
      "inputs": [
        {
          "internalType": "address",
          "name": "spender",
          "type": "address"
        }
      ],
      "name": "ERC20InvalidSpender",
      "type": "error"
    },
    {
      "anonymous": false,
      "inputs": [
        {
          "indexed": true,
          "internalType": "address",
          "name": "owner",
          "type": "address"
        },
        {
          "indexed": true,
          "internalType": "address",
          "name": "spender",
          "type": "address"
        },
        {
          "indexed": false,
          "internalType": "uint256",
          "name": "value",
          "type": "uint256"
        }
      ],
      "name": "Approval",
      "type": "event"
    },
    {
      "anonymous": false,
      "inputs": [
        {
          "indexed": true,
          "internalType": "address",
          "name": "seller",
          "type": "address"
        },
        {
          "indexed": false,
          "internalType": "uint256",
          "name": "tokenAmount",
          "type": "uint256"
        },
        {
          "indexed": false,
          "internalType": "uint256",
          "name": "price",
          "type": "uint256"
        }
      ],
      "name": "TokensListed",
      "type": "event"
    },
    {
      "anonymous": false,
      "inputs": [
        {
          "indexed": true,
          "internalType": "address",
          "name": "buyer",
          "type": "address"
        },
        {
          "indexed": true,
          "internalType": "address",
          "name": "seller",
          "type": "address"
        },
        {
          "indexed": false,
          "internalType": "uint256",
          "name": "tokenAmount",
          "type": "uint256"
        },
        {
          "indexed": false,
          "internalType": "uint256",
          "name": "price",
          "type": "uint256"
        }
      ],
      "name": "TokensPurchasedFromMarketplace",
      "type": "event"
    },
    {
      "anonymous": false,
      "inputs": [
        {
          "indexed": true,
          "internalType": "address",
          "name": "from",
          "type": "address"
        },
        {
          "indexed": true,
          "internalType": "address",
          "name": "to",
          "type": "address"
        },
        {
          "indexed": false,
          "internalType": "uint256",
          "name": "value",
          "type": "uint256"
        }
      ],
      "name": "Transfer",
      "type": "event"
    },
    {
      "anonymous": false,
      "inputs": [
        {
          "indexed": true,
          "internalType": "address",
          "name": "_industryId",
          "type": "address"
        },
        {
          "indexed": true,
          "internalType": "address",
          "name": "_govId",
          "type": "address"
        },
        {
          "indexed": true,
          "internalType": "uint256",
          "name": "_tokenCount",
          "type": "uint256"
        },
        {
          "indexed": false,
          "internalType": "uint256",
          "name": "_taxFee",
          "type": "uint256"
        }
      ],
      "name": "tokenPurchased",
      "type": "event"
    },
    {
      "inputs": [
        {
          "internalType": "address",
          "name": "",
          "type": "address"
        }
      ],
      "name": "GovernmentAccounts",
      "outputs": [
        {
          "internalType": "bool",
          "name": "",
          "type": "bool"
        }
      ],
      "stateMutability": "view",
      "type": "function"
    },
    {
      "inputs": [],
      "name": "GreenChainPlatformOwner",
      "outputs": [
        {
          "internalType": "address payable",
          "name": "",
          "type": "address"
        }
      ],
      "stateMutability": "view",
      "type": "function"
    },
    {
      "inputs": [
        {
          "internalType": "address",
          "name": "",
          "type": "address"
        }
      ],
      "name": "IndividualAccounts",
      "outputs": [
        {
          "internalType": "bool",
          "name": "",
          "type": "bool"
        }
      ],
      "stateMutability": "view",
      "type": "function"
    },
    {
      "inputs": [
        {
          "internalType": "address",
          "name": "",
          "type": "address"
        }
      ],
      "name": "IndustryAccounts",
      "outputs": [
        {
          "internalType": "bool",
          "name": "",
          "type": "bool"
        }
      ],
      "stateMutability": "view",
      "type": "function"
    },
    {
      "inputs": [
        {
          "internalType": "address",
          "name": "",
          "type": "address"
        }
      ],
      "name": "IndustryAllowance",
      "outputs": [
        {
          "internalType": "uint256",
          "name": "",
          "type": "uint256"
        }
      ],
      "stateMutability": "view",
      "type": "function"
    },
    {
      "inputs": [
        {
          "internalType": "address",
          "name": "owner",
          "type": "address"
        },
        {
          "internalType": "address",
          "name": "spender",
          "type": "address"
        }
      ],
      "name": "allowance",
      "outputs": [
        {
          "internalType": "uint256",
          "name": "",
          "type": "uint256"
        }
      ],
      "stateMutability": "view",
      "type": "function"
    },
    {
      "inputs": [
        {
          "internalType": "address",
          "name": "spender",
          "type": "address"
        },
        {
          "internalType": "uint256",
          "name": "value",
          "type": "uint256"
        }
      ],
      "name": "approve",
      "outputs": [
        {
          "internalType": "bool",
          "name": "",
          "type": "bool"
        }
      ],
      "stateMutability": "nonpayable",
      "type": "function"
    },
    {
      "inputs": [
        {
          "internalType": "address",
          "name": "account",
          "type": "address"
        }
      ],
      "name": "balanceOf",
      "outputs": [
        {
          "internalType": "uint256",
          "name": "",
          "type": "uint256"
        }
      ],
      "stateMutability": "view",
      "type": "function"
    },
    {
      "inputs": [
        {
          "internalType": "address",
          "name": "_address",
          "type": "address"
        },
        {
          "internalType": "uint256",
          "name": "_tokenCount",
          "type": "uint256"
        }
      ],
      "name": "burnToken",
      "outputs": [],
      "stateMutability": "nonpayable",
      "type": "function"
    },
    {
      "inputs": [
        {
          "internalType": "address",
          "name": "_to",
          "type": "address"
        },
        {
          "internalType": "uint256",
          "name": "_tokenCount",
          "type": "uint256"
        },
        {
          "internalType": "address payable",
          "name": "_govAddress",
          "type": "address"
        }
      ],
      "name": "buyToken",
      "outputs": [],
      "stateMutability": "payable",
      "type": "function"
    },
    {
      "inputs": [
        {
          "internalType": "uint256",
          "name": "_listingId",
          "type": "uint256"
        }
      ],
      "name": "buyTokensFromMarketpalce",
      "outputs": [],
      "stateMutability": "payable",
      "type": "function"
    },
    {
      "inputs": [
        {
          "internalType": "uint256",
          "name": "rewardAmount",
          "type": "uint256"
        }
      ],
      "name": "collectReward",
      "outputs": [],
      "stateMutability": "nonpayable",
      "type": "function"
    },
    {
      "inputs": [],
      "name": "decimals",
      "outputs": [
        {
          "internalType": "uint8",
          "name": "",
          "type": "uint8"
        }
      ],
      "stateMutability": "view",
      "type": "function"
    },
    {
      "inputs": [
        {
          "internalType": "address",
          "name": "_account",
          "type": "address"
        }
      ],
      "name": "grantGovernmentPrivilege",
      "outputs": [],
      "stateMutability": "nonpayable",
      "type": "function"
    },
    {
      "inputs": [
        {
          "internalType": "address",
          "name": "_account",
          "type": "address"
        }
      ],
      "name": "grantIndustryPrivilege",
      "outputs": [],
      "stateMutability": "nonpayable",
      "type": "function"
    },
    {
      "inputs": [
        {
          "internalType": "address",
          "name": "_industry",
          "type": "address"
        },
        {
          "internalType": "uint256",
          "name": "_maxAllowance",
          "type": "uint256"
        },
        {
          "internalType": "uint256",
          "name": "_tokenCount",
          "type": "uint256"
        }
      ],
      "name": "initialAllowance",
      "outputs": [],
      "stateMutability": "nonpayable",
      "type": "function"
    },
    {
      "inputs": [
        {
          "internalType": "uint256",
          "name": "_tokenCount",
          "type": "uint256"
        },
        {
          "internalType": "uint256",
          "name": "_price",
          "type": "uint256"
        }
      ],
      "name": "listTokensForSale",
      "outputs": [],
      "stateMutability": "nonpayable",
      "type": "function"
    },
    {
      "inputs": [],
      "name": "listingCount",
      "outputs": [
        {
          "internalType": "uint256",
          "name": "",
          "type": "uint256"
        }
      ],
      "stateMutability": "view",
      "type": "function"
    },
    {
      "inputs": [
        {
          "internalType": "uint256",
          "name": "",
          "type": "uint256"
        }
      ],
      "name": "listings",
      "outputs": [
        {
          "internalType": "address",
          "name": "seller",
          "type": "address"
        },
        {
          "internalType": "uint256",
          "name": "tokenAmount",
          "type": "uint256"
        },
        {
          "internalType": "uint256",
          "name": "price",
          "type": "uint256"
        },
        {
          "internalType": "bool",
          "name": "isActive",
          "type": "bool"
        }
      ],
      "stateMutability": "view",
      "type": "function"
    },
    {
      "inputs": [],
      "name": "name",
      "outputs": [
        {
          "internalType": "string",
          "name": "",
          "type": "string"
        }
      ],
      "stateMutability": "view",
      "type": "function"
    },
    {
      "inputs": [],
      "name": "registerIndividual",
      "outputs": [],
      "stateMutability": "nonpayable",
      "type": "function"
    },
    {
      "inputs": [
        {
          "internalType": "uint256",
          "name": "newPrice",
          "type": "uint256"
        }
      ],
      "name": "setTokenPrice",
      "outputs": [],
      "stateMutability": "nonpayable",
      "type": "function"
    },
    {
      "inputs": [],
      "name": "symbol",
      "outputs": [
        {
          "internalType": "string",
          "name": "",
          "type": "string"
        }
      ],
      "stateMutability": "view",
      "type": "function"
    },
    {
      "inputs": [],
      "name": "tokenPrice",
      "outputs": [
        {
          "internalType": "uint256",
          "name": "",
          "type": "uint256"
        }
      ],
      "stateMutability": "view",
      "type": "function"
    },
    {
      "inputs": [],
      "name": "totalSupply",
      "outputs": [
        {
          "internalType": "uint256",
          "name": "",
          "type": "uint256"
        }
      ],
      "stateMutability": "view",
      "type": "function"
    },
    {
      "inputs": [
        {
          "internalType": "address",
          "name": "to",
          "type": "address"
        },
        {
          "internalType": "uint256",
          "name": "value",
          "type": "uint256"
        }
      ],
      "name": "transfer",
      "outputs": [
        {
          "internalType": "bool",
          "name": "",
          "type": "bool"
        }
      ],
      "stateMutability": "nonpayable",
      "type": "function"
    },
    {
      "inputs": [
        {
          "internalType": "address",
          "name": "from",
          "type": "address"
        },
        {
          "internalType": "address",
          "name": "to",
          "type": "address"
        },
        {
          "internalType": "uint256",
          "name": "value",
          "type": "uint256"
        }
      ],
      "name": "transferFrom",
      "outputs": [
        {
          "internalType": "bool",
          "name": "",
          "type": "bool"
        }
      ],
      "stateMutability": "nonpayable",
      "type": "function"
    }
  ],
  "bytecode": "0x60806040523480156200001157600080fd5b5060405162003ae338038062003ae383398181016040528101906200003791906200047d565b6040518060400160405280600b81526020017f477265656e4372656469740000000000000000000000000000000000000000008152506040518060400160405280600381526020017f47435400000000000000000000000000000000000000000000000000000000008152508160039081620000b491906200071f565b508060049081620000c691906200071f565b50505033600560006101000a81548173ffffffffffffffffffffffffffffffffffffffff021916908373ffffffffffffffffffffffffffffffffffffffff1602179055508060068190555062000170600560009054906101000a900473ffffffffffffffffffffffffffffffffffffffff16620001486200017760201b60201c565b600a62000156919062000996565b6064620001649190620009e7565b6200018060201b60201c565b5062000b3a565b60006012905090565b600073ffffffffffffffffffffffffffffffffffffffff168273ffffffffffffffffffffffffffffffffffffffff1603620001f55760006040517fec442f05000000000000000000000000000000000000000000000000000000008152600401620001ec919062000a77565b60405180910390fd5b62000209600083836200020d60201b60201c565b5050565b600073ffffffffffffffffffffffffffffffffffffffff168373ffffffffffffffffffffffffffffffffffffffff16036200026357806002600082825462000256919062000a94565b9250508190555062000339565b60008060008573ffffffffffffffffffffffffffffffffffffffff1673ffffffffffffffffffffffffffffffffffffffff16815260200190815260200160002054905081811015620002f2578381836040517fe450d38c000000000000000000000000000000000000000000000000000000008152600401620002e99392919062000ae0565b60405180910390fd5b8181036000808673ffffffffffffffffffffffffffffffffffffffff1673ffffffffffffffffffffffffffffffffffffffff16815260200190815260200160002081905550505b600073ffffffffffffffffffffffffffffffffffffffff168273ffffffffffffffffffffffffffffffffffffffff1603620003845780600260008282540392505081905550620003d1565b806000808473ffffffffffffffffffffffffffffffffffffffff1673ffffffffffffffffffffffffffffffffffffffff168152602001908152602001600020600082825401925050819055505b8173ffffffffffffffffffffffffffffffffffffffff168373ffffffffffffffffffffffffffffffffffffffff167fddf252ad1be2c89b69c2b068fc378daa952ba7f163c4a11628f55a4df523b3ef8360405162000430919062000b1d565b60405180910390a3505050565b600080fd5b6000819050919050565b620004578162000442565b81146200046357600080fd5b50565b60008151905062000477816200044c565b92915050565b6000602082840312156200049657620004956200043d565b5b6000620004a68482850162000466565b91505092915050565b600081519050919050565b7f4e487b7100000000000000000000000000000000000000000000000000000000600052604160045260246000fd5b7f4e487b7100000000000000000000000000000000000000000000000000000000600052602260045260246000fd5b600060028204905060018216806200053157607f821691505b602082108103620005475762000546620004e9565b5b50919050565b60008190508160005260206000209050919050565b60006020601f8301049050919050565b600082821b905092915050565b600060088302620005b17fffffffffffffffffffffffffffffffffffffffffffffffffffffffffffffffff8262000572565b620005bd868362000572565b95508019841693508086168417925050509392505050565b6000819050919050565b600062000600620005fa620005f48462000442565b620005d5565b62000442565b9050919050565b6000819050919050565b6200061c83620005df565b620006346200062b8262000607565b8484546200057f565b825550505050565b600090565b6200064b6200063c565b6200065881848462000611565b505050565b5b8181101562000680576200067460008262000641565b6001810190506200065e565b5050565b601f821115620006cf5762000699816200054d565b620006a48462000562565b81016020851015620006b4578190505b620006cc620006c38562000562565b8301826200065d565b50505b505050565b600082821c905092915050565b6000620006f460001984600802620006d4565b1980831691505092915050565b60006200070f8383620006e1565b9150826002028217905092915050565b6200072a82620004af565b67ffffffffffffffff811115620007465762000745620004ba565b5b62000752825462000518565b6200075f82828562000684565b600060209050601f83116001811462000797576000841562000782578287015190505b6200078e858262000701565b865550620007fe565b601f198416620007a7866200054d565b60005b82811015620007d157848901518255600182019150602085019450602081019050620007aa565b86831015620007f15784890151620007ed601f891682620006e1565b8355505b6001600288020188555050505b505050505050565b7f4e487b7100000000000000000000000000000000000000000000000000000000600052601160045260246000fd5b60008160011c9050919050565b6000808291508390505b600185111562000894578086048111156200086c576200086b62000806565b5b60018516156200087c5780820291505b80810290506200088c8562000835565b94506200084c565b94509492505050565b600082620008af576001905062000982565b81620008bf576000905062000982565b8160018114620008d85760028114620008e35762000919565b600191505062000982565b60ff841115620008f857620008f762000806565b5b8360020a91508482111562000912576200091162000806565b5b5062000982565b5060208310610133831016604e8410600b8410161715620009535782820a9050838111156200094d576200094c62000806565b5b62000982565b62000962848484600162000842565b925090508184048111156200097c576200097b62000806565b5b81810290505b9392505050565b600060ff82169050919050565b6000620009a38262000442565b9150620009b08362000989565b9250620009df7fffffffffffffffffffffffffffffffffffffffffffffffffffffffffffffffff84846200089d565b905092915050565b6000620009f48262000442565b915062000a018362000442565b925082820262000a118162000442565b9150828204841483151762000a2b5762000a2a62000806565b5b5092915050565b600073ffffffffffffffffffffffffffffffffffffffff82169050919050565b600062000a5f8262000a32565b9050919050565b62000a718162000a52565b82525050565b600060208201905062000a8e600083018462000a66565b92915050565b600062000aa18262000442565b915062000aae8362000442565b925082820190508082111562000ac95762000ac862000806565b5b92915050565b62000ada8162000442565b82525050565b600060608201905062000af7600083018662000a66565b62000b06602083018562000acf565b62000b15604083018462000acf565b949350505050565b600060208201905062000b34600083018462000acf565b92915050565b612f998062000b4a6000396000f3fe60806040526004361061019c5760003560e01c80637ff9b596116100ec578063cb8c0c1d1161008a578063dd62ed3e11610064578063dd62ed3e146105be578063de74e57b146105fb578063f13e83311461063b578063fbd9be8b146106785761019c565b8063cb8c0c1d1461052f578063d1df306c1461056c578063d22b2ed0146105955761019c565b8063a9059cbb116100c6578063a9059cbb14610487578063a9b07c26146104c4578063b6267ae8146104ef578063bd3507da146105065761019c565b80637ff9b5961461041557806395d89b41146104405780639a83dc3d1461046b5761019c565b8063313ce567116101595780635fe01930116101335780635fe019301461036a578063692bf4a8146103935780636a61e5fc146103af57806370a08231146103d85761019c565b8063313ce567146102d95780634fac01681461030457806351e73a16146103415761019c565b806306fdde03146101a1578063095ea7b3146101cc5780630a8c8f201461020957806318160ddd1461024657806323b872dd146102715780632ea665cd146102ae575b600080fd5b3480156101ad57600080fd5b506101b66106a1565b6040516101c39190611fd8565b60405180910390f35b3480156101d857600080fd5b506101f360048036038101906101ee9190612093565b610733565b60405161020091906120ee565b60405180910390f35b34801561021557600080fd5b50610230600480360381019061022b9190612109565b610756565b60405161023d91906120ee565b60405180910390f35b34801561025257600080fd5b5061025b610776565b6040516102689190612145565b60405180910390f35b34801561027d57600080fd5b5061029860048036038101906102939190612160565b610780565b6040516102a591906120ee565b60405180910390f35b3480156102ba57600080fd5b506102c36107af565b6040516102d091906121d4565b60405180910390f35b3480156102e557600080fd5b506102ee6107d5565b6040516102fb919061220b565b60405180910390f35b34801561031057600080fd5b5061032b60048036038101906103269190612109565b6107de565b60405161033891906120ee565b60405180910390f35b34801561034d57600080fd5b5061036860048036038101906103639190612226565b6107fe565b005b34801561037657600080fd5b50610391600480360381019061038c9190612109565b610a48565b005b6103ad60048036038101906103a891906122a5565b610aa3565b005b3480156103bb57600080fd5b506103d660048036038101906103d191906122f8565b610db2565b005b3480156103e457600080fd5b506103ff60048036038101906103fa9190612109565b610e4f565b60405161040c9190612145565b60405180910390f35b34801561042157600080fd5b5061042a610e97565b6040516104379190612145565b60405180910390f35b34801561044c57600080fd5b50610455610e9d565b6040516104629190611fd8565b60405180910390f35b610485600480360381019061048091906122f8565b610f2f565b005b34801561049357600080fd5b506104ae60048036038101906104a99190612093565b6111e0565b6040516104bb91906120ee565b60405180910390f35b3480156104d057600080fd5b506104d9611203565b6040516104e69190612145565b60405180910390f35b3480156104fb57600080fd5b50610504611209565b005b34801561051257600080fd5b5061052d600480360381019061052891906122f8565b6112f0565b005b34801561053b57600080fd5b5061055660048036038101906105519190612109565b6113ea565b6040516105639190612145565b60405180910390f35b34801561057857600080fd5b50610593600480360381019061058e9190612093565b611402565b005b3480156105a157600080fd5b506105bc60048036038101906105b79190612109565b611497565b005b3480156105ca57600080fd5b506105e560048036038101906105e09190612325565b61151c565b6040516105f29190612145565b60405180910390f35b34801561060757600080fd5b50610622600480360381019061061d91906122f8565b6115a3565b6040516106329493929190612374565b60405180910390f35b34801561064757600080fd5b50610662600480360381019061065d9190612109565b611600565b60405161066f91906120ee565b60405180910390f35b34801561068457600080fd5b5061069f600480360381019061069a91906123b9565b611620565b005b6060600380546106b090612428565b80601f01602080910402602001604051908101604052809291908181526020018280546106dc90612428565b80156107295780601f106106fe57610100808354040283529160200191610729565b820191906000526020600020905b81548152906001019060200180831161070c57829003601f168201915b5050505050905090565b60008061073e6118a6565b905061074b8185856118ae565b600191505092915050565b60086020528060005260406000206000915054906101000a900460ff1681565b6000600254905090565b60008061078b6118a6565b90506107988582856118c0565b6107a3858585611954565b60019150509392505050565b600560009054906101000a900473ffffffffffffffffffffffffffffffffffffffff1681565b60006012905090565b60096020528060005260406000206000915054906101000a900460ff1681565b60011515600760003373ffffffffffffffffffffffffffffffffffffffff1673ffffffffffffffffffffffffffffffffffffffff16815260200190815260200160002060009054906101000a900460ff16151514610891576040517f08c379a0000000000000000000000000000000000000000000000000000000008152600401610888906124cb565b60405180910390fd5b600073ffffffffffffffffffffffffffffffffffffffff168373ffffffffffffffffffffffffffffffffffffffff1603610900576040517f08c379a00000000000000000000000000000000000000000000000000000000081526004016108f790612537565b60405180910390fd5b60011515600860008573ffffffffffffffffffffffffffffffffffffffff1673ffffffffffffffffffffffffffffffffffffffff16815260200190815260200160002060009054906101000a900460ff16151514610993576040517f08c379a000000000000000000000000000000000000000000000000000000000815260040161098a906125c9565b60405180910390fd5b600081116109d6576040517f08c379a00000000000000000000000000000000000000000000000000000000081526004016109cd9061265b565b60405180910390fd5b81600a60008573ffffffffffffffffffffffffffffffffffffffff1673ffffffffffffffffffffffffffffffffffffffff16815260200190815260200160002081905550610a433384610a276107d5565b600a610a3391906127dd565b84610a3e9190612828565b611954565b505050565b6001600860008373ffffffffffffffffffffffffffffffffffffffff1673ffffffffffffffffffffffffffffffffffffffff16815260200190815260200160002060006101000a81548160ff02191690831515021790555050565b60011515600860003373ffffffffffffffffffffffffffffffffffffffff1673ffffffffffffffffffffffffffffffffffffffff16815260200190815260200160002060009054906101000a900460ff16151514610b36576040517f08c379a0000000000000000000000000000000000000000000000000000000008152600401610b2d906128dc565b60405180910390fd5b60008211610b79576040517f08c379a0000000000000000000000000000000000000000000000000000000008152600401610b709061296e565b60405180910390fd5b3482600654610b889190612828565b14610bc8576040517f08c379a0000000000000000000000000000000000000000000000000000000008152600401610bbf906129da565b60405180910390fd5b81600a60008573ffffffffffffffffffffffffffffffffffffffff1673ffffffffffffffffffffffffffffffffffffffff168152602001908152602001600020541015610c4a576040517f08c379a0000000000000000000000000000000000000000000000000000000008152600401610c4190612a46565b60405180910390fd5b610c7283610c566107d5565b600a610c6291906127dd565b84610c6d9190612828565b611a48565b8073ffffffffffffffffffffffffffffffffffffffff166108fc349081150290604051600060405180830381858888f19350505050158015610cb8573d6000803e3d6000fd5b5081600a60008573ffffffffffffffffffffffffffffffffffffffff1673ffffffffffffffffffffffffffffffffffffffff16815260200190815260200160002054610d049190612a66565b600a60008573ffffffffffffffffffffffffffffffffffffffff1673ffffffffffffffffffffffffffffffffffffffff16815260200190815260200160002081905550818173ffffffffffffffffffffffffffffffffffffffff168473ffffffffffffffffffffffffffffffffffffffff167f5fc4872a04fc9ef9e80a6593db4a82874ea60fbc1f93bd4d0b7a00d4aa8ae55634604051610da59190612145565b60405180910390a4505050565b60011515600760003373ffffffffffffffffffffffffffffffffffffffff1673ffffffffffffffffffffffffffffffffffffffff16815260200190815260200160002060009054906101000a900460ff16151514610e45576040517f08c379a0000000000000000000000000000000000000000000000000000000008152600401610e3c906124cb565b60405180910390fd5b8060068190555050565b60008060008373ffffffffffffffffffffffffffffffffffffffff1673ffffffffffffffffffffffffffffffffffffffff168152602001908152602001600020549050919050565b60065481565b606060048054610eac90612428565b80601f0160208091040260200160405190810160405280929190818152602001828054610ed890612428565b8015610f255780601f10610efa57610100808354040283529160200191610f25565b820191906000526020600020905b815481529060010190602001808311610f0857829003601f168201915b5050505050905090565b60011515600860003373ffffffffffffffffffffffffffffffffffffffff1673ffffffffffffffffffffffffffffffffffffffff16815260200190815260200160002060009054906101000a900460ff16151514610fc2576040517f08c379a0000000000000000000000000000000000000000000000000000000008152600401610fb9906128dc565b60405180910390fd5b6000600b600083815260200190815260200160002090508060030160009054906101000a900460ff1661102a576040517f08c379a000000000000000000000000000000000000000000000000000000000815260040161102190612ae6565b60405180910390fd5b80600201543414611070576040517f08c379a000000000000000000000000000000000000000000000000000000000815260040161106790612b52565b60405180910390fd5b6110c18160000160009054906101000a900473ffffffffffffffffffffffffffffffffffffffff16336110a16107d5565b600a6110ad91906127dd565b84600101546110bc9190612828565b611954565b8060000160009054906101000a900473ffffffffffffffffffffffffffffffffffffffff1673ffffffffffffffffffffffffffffffffffffffff166108fc349081150290604051600060405180830381858888f1935050505015801561112b573d6000803e3d6000fd5b5060008160030160006101000a81548160ff0219169083151502179055508060000160009054906101000a900473ffffffffffffffffffffffffffffffffffffffff1673ffffffffffffffffffffffffffffffffffffffff163373ffffffffffffffffffffffffffffffffffffffff167f85f10505be3ed7bf7f1e02cf6bf521e67cd27c4b1e91954cc55d67c262fa64ff836001015484600201546040516111d4929190612b72565b60405180910390a35050565b6000806111eb6118a6565b90506111f8818585611954565b600191505092915050565b600c5481565b600960003373ffffffffffffffffffffffffffffffffffffffff1673ffffffffffffffffffffffffffffffffffffffff16815260200190815260200160002060009054906101000a900460ff1615611296576040517f08c379a000000000000000000000000000000000000000000000000000000000815260040161128d90612c0d565b60405180910390fd5b6001600960003373ffffffffffffffffffffffffffffffffffffffff1673ffffffffffffffffffffffffffffffffffffffff16815260200190815260200160002060006101000a81548160ff021916908315150217905550565b600960003373ffffffffffffffffffffffffffffffffffffffff1673ffffffffffffffffffffffffffffffffffffffff16815260200190815260200160002060009054906101000a900460ff1661137c576040517f08c379a000000000000000000000000000000000000000000000000000000000815260040161137390612c9f565b60405180910390fd5b600081116113bf576040517f08c379a00000000000000000000000000000000000000000000000000000000081526004016113b690612d31565b60405180910390fd5b6113e7336113cb6107d5565b600a6113d791906127dd565b836113e29190612828565b611a48565b50565b600a6020528060005260406000206000915090505481565b61140a6107d5565b600a61141691906127dd565b816114219190612828565b61142a83610e4f565b101561146b576040517f08c379a000000000000000000000000000000000000000000000000000000000815260040161146290612d9d565b60405180910390fd5b611493826114776107d5565b600a61148391906127dd565b8361148e9190612828565b611aca565b5050565b6001600760008373ffffffffffffffffffffffffffffffffffffffff1673ffffffffffffffffffffffffffffffffffffffff16815260200190815260200160002060006101000a81548160ff021916908315150217905550611519336114fb6107d5565b600a61150791906127dd565b6103e86115149190612828565b611a48565b50565b6000600160008473ffffffffffffffffffffffffffffffffffffffff1673ffffffffffffffffffffffffffffffffffffffff16815260200190815260200160002060008373ffffffffffffffffffffffffffffffffffffffff1673ffffffffffffffffffffffffffffffffffffffff16815260200190815260200160002054905092915050565b600b6020528060005260406000206000915090508060000160009054906101000a900473ffffffffffffffffffffffffffffffffffffffff16908060010154908060020154908060030160009054906101000a900460ff16905084565b60076020528060005260406000206000915054906101000a900460ff1681565b60011515600860003373ffffffffffffffffffffffffffffffffffffffff1673ffffffffffffffffffffffffffffffffffffffff16815260200190815260200160002060009054906101000a900460ff161515146116b3576040517f08c379a00000000000000000000000000000000000000000000000000000000081526004016116aa906128dc565b60405180910390fd5b816116bc6107d5565b600a6116c891906127dd565b816116d39190612828565b6116dc33610e4f565b101561171d576040517f08c379a000000000000000000000000000000000000000000000000000000000815260040161171490612e09565b60405180910390fd5b60008311801561172d5750600082115b61176c576040517f08c379a000000000000000000000000000000000000000000000000000000000815260040161176390612e75565b60405180910390fd5b60405180608001604052803373ffffffffffffffffffffffffffffffffffffffff16815260200184815260200183815260200160011515815250600b6000600c54815260200190815260200160002060008201518160000160006101000a81548173ffffffffffffffffffffffffffffffffffffffff021916908373ffffffffffffffffffffffffffffffffffffffff160217905550602082015181600101556040820151816002015560608201518160030160006101000a81548160ff0219169083151502179055509050503373ffffffffffffffffffffffffffffffffffffffff167fcf412bfe866866664047e9f9e38cc21c13173a37c85de5d29b65f1822231ec008484604051611881929190612b72565b60405180910390a2600c600081548092919061189c90612e95565b9190505550505050565b600033905090565b6118bb8383836001611b4c565b505050565b60006118cc848461151c565b90507fffffffffffffffffffffffffffffffffffffffffffffffffffffffffffffffff811461194e578181101561193e578281836040517ffb8f41b200000000000000000000000000000000000000000000000000000000815260040161193593929190612edd565b60405180910390fd5b61194d84848484036000611b4c565b5b50505050565b600073ffffffffffffffffffffffffffffffffffffffff168373ffffffffffffffffffffffffffffffffffffffff16036119c65760006040517f96c6fd1e0000000000000000000000000000000000000000000000000000000081526004016119bd9190612f14565b60405180910390fd5b600073ffffffffffffffffffffffffffffffffffffffff168273ffffffffffffffffffffffffffffffffffffffff1603611a385760006040517fec442f05000000000000000000000000000000000000000000000000000000008152600401611a2f9190612f14565b60405180910390fd5b611a43838383611d23565b505050565b600073ffffffffffffffffffffffffffffffffffffffff168273ffffffffffffffffffffffffffffffffffffffff1603611aba5760006040517fec442f05000000000000000000000000000000000000000000000000000000008152600401611ab19190612f14565b60405180910390fd5b611ac660008383611d23565b5050565b600073ffffffffffffffffffffffffffffffffffffffff168273ffffffffffffffffffffffffffffffffffffffff1603611b3c5760006040517f96c6fd1e000000000000000000000000000000000000000000000000000000008152600401611b339190612f14565b60405180910390fd5b611b4882600083611d23565b5050565b600073ffffffffffffffffffffffffffffffffffffffff168473ffffffffffffffffffffffffffffffffffffffff1603611bbe5760006040517fe602df05000000000000000000000000000000000000000000000000000000008152600401611bb59190612f14565b60405180910390fd5b600073ffffffffffffffffffffffffffffffffffffffff168373ffffffffffffffffffffffffffffffffffffffff1603611c305760006040517f94280d62000000000000000000000000000000000000000000000000000000008152600401611c279190612f14565b60405180910390fd5b81600160008673ffffffffffffffffffffffffffffffffffffffff1673ffffffffffffffffffffffffffffffffffffffff16815260200190815260200160002060008573ffffffffffffffffffffffffffffffffffffffff1673ffffffffffffffffffffffffffffffffffffffff168152602001908152602001600020819055508015611d1d578273ffffffffffffffffffffffffffffffffffffffff168473ffffffffffffffffffffffffffffffffffffffff167f8c5be1e5ebec7d5bd14f71427d1e84f3dd0314c0f7b2291e5b200ac8c7c3b92584604051611d149190612145565b60405180910390a35b50505050565b600073ffffffffffffffffffffffffffffffffffffffff168373ffffffffffffffffffffffffffffffffffffffff1603611d75578060026000828254611d699190612f2f565b92505081905550611e48565b60008060008573ffffffffffffffffffffffffffffffffffffffff1673ffffffffffffffffffffffffffffffffffffffff16815260200190815260200160002054905081811015611e01578381836040517fe450d38c000000000000000000000000000000000000000000000000000000008152600401611df893929190612edd565b60405180910390fd5b8181036000808673ffffffffffffffffffffffffffffffffffffffff1673ffffffffffffffffffffffffffffffffffffffff16815260200190815260200160002081905550505b600073ffffffffffffffffffffffffffffffffffffffff168273ffffffffffffffffffffffffffffffffffffffff1603611e915780600260008282540392505081905550611ede565b806000808473ffffffffffffffffffffffffffffffffffffffff1673ffffffffffffffffffffffffffffffffffffffff168152602001908152602001600020600082825401925050819055505b8173ffffffffffffffffffffffffffffffffffffffff168373ffffffffffffffffffffffffffffffffffffffff167fddf252ad1be2c89b69c2b068fc378daa952ba7f163c4a11628f55a4df523b3ef83604051611f3b9190612145565b60405180910390a3505050565b600081519050919050565b600082825260208201905092915050565b60005b83811015611f82578082015181840152602081019050611f67565b60008484015250505050565b6000601f19601f8301169050919050565b6000611faa82611f48565b611fb48185611f53565b9350611fc4818560208601611f64565b611fcd81611f8e565b840191505092915050565b60006020820190508181036000830152611ff28184611f9f565b905092915050565b600080fd5b600073ffffffffffffffffffffffffffffffffffffffff82169050919050565b600061202a82611fff565b9050919050565b61203a8161201f565b811461204557600080fd5b50565b60008135905061205781612031565b92915050565b6000819050919050565b6120708161205d565b811461207b57600080fd5b50565b60008135905061208d81612067565b92915050565b600080604083850312156120aa576120a9611ffa565b5b60006120b885828601612048565b92505060206120c98582860161207e565b9150509250929050565b60008115159050919050565b6120e8816120d3565b82525050565b600060208201905061210360008301846120df565b92915050565b60006020828403121561211f5761211e611ffa565b5b600061212d84828501612048565b91505092915050565b61213f8161205d565b82525050565b600060208201905061215a6000830184612136565b92915050565b60008060006060848603121561217957612178611ffa565b5b600061218786828701612048565b935050602061219886828701612048565b92505060406121a98682870161207e565b9150509250925092565b60006121be82611fff565b9050919050565b6121ce816121b3565b82525050565b60006020820190506121e960008301846121c5565b92915050565b600060ff82169050919050565b612205816121ef565b82525050565b600060208201905061222060008301846121fc565b92915050565b60008060006060848603121561223f5761223e611ffa565b5b600061224d86828701612048565b935050602061225e8682870161207e565b925050604061226f8682870161207e565b9150509250925092565b612282816121b3565b811461228d57600080fd5b50565b60008135905061229f81612279565b92915050565b6000806000606084860312156122be576122bd611ffa565b5b60006122cc86828701612048565b93505060206122dd8682870161207e565b92505060406122ee86828701612290565b9150509250925092565b60006020828403121561230e5761230d611ffa565b5b600061231c8482850161207e565b91505092915050565b6000806040838503121561233c5761233b611ffa565b5b600061234a85828601612048565b925050602061235b85828601612048565b9150509250929050565b61236e8161201f565b82525050565b60006080820190506123896000830187612365565b6123966020830186612136565b6123a36040830185612136565b6123b060608301846120df565b95945050505050565b600080604083850312156123d0576123cf611ffa565b5b60006123de8582860161207e565b92505060206123ef8582860161207e565b9150509250929050565b7f4e487b7100000000000000000000000000000000000000000000000000000000600052602260045260246000fd5b6000600282049050600182168061244057607f821691505b602082108103612453576124526123f9565b5b50919050565b7f6f6e6c7920676f7665726e6d656e7420617574686f726974792063616e20757360008201527f6520746869732066756e6374696f6e0000000000000000000000000000000000602082015250565b60006124b5602f83611f53565b91506124c082612459565b604082019050919050565b600060208201905081810360008301526124e4816124a8565b9050919050565b7f496e76616c696420616464726573736573000000000000000000000000000000600082015250565b6000612521601183611f53565b915061252c826124eb565b602082019050919050565b6000602082019050818103600083015261255081612514565b9050919050565b7f676976656e2061646472657373206d75737420626520616e20696e647573747260008201527f7900000000000000000000000000000000000000000000000000000000000000602082015250565b60006125b3602183611f53565b91506125be82612557565b604082019050919050565b600060208201905081810360008301526125e2816125a6565b9050919050565b7f746f6b656e20436f756e74206d7573742062652067726561746572207468616e60008201527f2030000000000000000000000000000000000000000000000000000000000000602082015250565b6000612645602283611f53565b9150612650826125e9565b604082019050919050565b6000602082019050818103600083015261267481612638565b9050919050565b7f4e487b7100000000000000000000000000000000000000000000000000000000600052601160045260246000fd5b60008160011c9050919050565b6000808291508390505b6001851115612701578086048111156126dd576126dc61267b565b5b60018516156126ec5780820291505b80810290506126fa856126aa565b94506126c1565b94509492505050565b60008261271a57600190506127d6565b8161272857600090506127d6565b816001811461273e576002811461274857612777565b60019150506127d6565b60ff84111561275a5761275961267b565b5b8360020a9150848211156127715761277061267b565b5b506127d6565b5060208310610133831016604e8410600b84101617156127ac5782820a9050838111156127a7576127a661267b565b5b6127d6565b6127b984848460016126b7565b925090508184048111156127d0576127cf61267b565b5b81810290505b9392505050565b60006127e88261205d565b91506127f3836121ef565b92506128207fffffffffffffffffffffffffffffffffffffffffffffffffffffffffffffffff848461270a565b905092915050565b60006128338261205d565b915061283e8361205d565b925082820261284c8161205d565b915082820484148315176128635761286261267b565b5b5092915050565b7f6f6e6c7920696e64757374727920617574686f726974792063616e207573652060008201527f746869732066756e6374696f6e00000000000000000000000000000000000000602082015250565b60006128c6602d83611f53565b91506128d18261286a565b604082019050919050565b600060208201905081810360008301526128f5816128b9565b9050919050565b7f546f6b656e20636f756e74206d7573742062652067726561746572207468616e60008201527f2030000000000000000000000000000000000000000000000000000000000000602082015250565b6000612958602283611f53565b9150612963826128fc565b604082019050919050565b600060208201905081810360008301526129878161294b565b9050919050565b7f496e636f727265637420616d6f756e7400000000000000000000000000000000600082015250565b60006129c4601083611f53565b91506129cf8261298e565b602082019050919050565b600060208201905081810360008301526129f3816129b7565b9050919050565b7f416c6c6f77616e63652065786365656465640000000000000000000000000000600082015250565b6000612a30601283611f53565b9150612a3b826129fa565b602082019050919050565b60006020820190508181036000830152612a5f81612a23565b9050919050565b6000612a718261205d565b9150612a7c8361205d565b9250828203905081811115612a9457612a9361267b565b5b92915050565b7f4c697374696e67206973206e6f74206163746976650000000000000000000000600082015250565b6000612ad0601583611f53565b9150612adb82612a9a565b602082019050919050565b60006020820190508181036000830152612aff81612ac3565b9050919050565b7f496e636f7272656374207061796d656e7420616d6f756e740000000000000000600082015250565b6000612b3c601883611f53565b9150612b4782612b06565b602082019050919050565b60006020820190508181036000830152612b6b81612b2f565b9050919050565b6000604082019050612b876000830185612136565b612b946020830184612136565b9392505050565b7f416c7265616479207265676973746572656420617320616e20696e646976696460008201527f75616c0000000000000000000000000000000000000000000000000000000000602082015250565b6000612bf7602383611f53565b9150612c0282612b9b565b604082019050919050565b60006020820190508181036000830152612c2681612bea565b9050919050565b7f4f6e6c79207265676973746572656420696e646976696475616c20757365727360008201527f2063616e2063616c6c20746869732066756e6374696f6e000000000000000000602082015250565b6000612c89603783611f53565b9150612c9482612c2d565b604082019050919050565b60006020820190508181036000830152612cb881612c7c565b9050919050565b7f52657761726420616d6f756e74206d757374206265206772656174657220746860008201527f616e203000000000000000000000000000000000000000000000000000000000602082015250565b6000612d1b602483611f53565b9150612d2682612cbf565b604082019050919050565b60006020820190508181036000830152612d4a81612d0e565b9050919050565b7f746f6b656e20636f756e74206973206e6f7420656e6f75676800000000000000600082015250565b6000612d87601983611f53565b9150612d9282612d51565b602082019050919050565b60006020820190508181036000830152612db681612d7a565b9050919050565b7f496e73756666696369656e742062616c616e6365000000000000000000000000600082015250565b6000612df3601483611f53565b9150612dfe82612dbd565b602082019050919050565b60006020820190508181036000830152612e2281612de6565b9050919050565b7f496e76616c696420616d6f756e74206f72207072696365000000000000000000600082015250565b6000612e5f601783611f53565b9150612e6a82612e29565b602082019050919050565b60006020820190508181036000830152612e8e81612e52565b9050919050565b6000612ea08261205d565b91507fffffffffffffffffffffffffffffffffffffffffffffffffffffffffffffffff8203612ed257612ed161267b565b5b600182019050919050565b6000606082019050612ef26000830186612365565b612eff6020830185612136565b612f0c6040830184612136565b949350505050565b6000602082019050612f296000830184612365565b92915050565b6000612f3a8261205d565b9150612f458361205d565b9250828201905080821115612f5d57612f5c61267b565b5b9291505056fea2646970667358221220d5e58c009d0c4dc77ff16650aaae0e40ac46bb79c60e35bd52c6338d0f3e5a6964736f6c63430008180033",
  "linkReferences": {},
  "deployedLinkReferences": {}
}