{
  "_format": "hh-sol-artifact-1",
  "contractName": "KYC",
  "sourceName": "contracts/KYC.sol",
  "abi": [
    {
      "anonymous": false,
      "inputs": [
        {
          "indexed": true,
          "internalType": "address",
          "name": "industry",
          "type": "address"
        },
        {
          "indexed": false,
          "internalType": "string",
          "name": "ipfsUrl",
          "type": "string"
        }
      ],
      "name": "CertificateSubmitted",
      "type": "event"
    },
    {
      "anonymous": false,
      "inputs": [
        {
          "indexed": true,
          "internalType": "address",
          "name": "government",
          "type": "address"
        },
        {
          "indexed": true,
          "internalType": "address",
          "name": "industry",
          "type": "address"
        },
        {
          "indexed": false,
          "internalType": "enum KYC.VerificationStatus",
          "name": "status",
          "type": "uint8"
        }
      ],
      "name": "CertificateVerified",
      "type": "event"
    },
    {
      "inputs": [],
      "name": "certificateCount",
      "outputs": [
        {
          "internalType": "uint256",
          "name": "",
          "type": "uint256"
        }
      ],
      "stateMutability": "view",
      "type": "function"
    },
    {
      "inputs": [
        {
          "internalType": "address",
          "name": "",
          "type": "address"
        }
      ],
      "name": "certificates",
      "outputs": [
        {
          "internalType": "string",
          "name": "ipfsUrl",
          "type": "string"
        },
        {
          "internalType": "enum KYC.VerificationStatus",
          "name": "status",
          "type": "uint8"
        },
        {
          "internalType": "address",
          "name": "submittedBy",
          "type": "address"
        },
        {
          "internalType": "address",
          "name": "verifiedBy",
          "type": "address"
        }
      ],
      "stateMutability": "view",
      "type": "function"
    },
    {
      "inputs": [
        {
          "internalType": "uint256",
          "name": "",
          "type": "uint256"
        }
      ],
      "name": "industries",
      "outputs": [
        {
          "internalType": "address",
          "name": "",
          "type": "address"
        }
      ],
      "stateMutability": "view",
      "type": "function"
    },
    {
      "inputs": [
        {
          "internalType": "string",
          "name": "ipfsUrl",
          "type": "string"
        }
      ],
      "name": "submitCertificate",
      "outputs": [],
      "stateMutability": "nonpayable",
      "type": "function"
    },
    {
      "inputs": [
        {
          "internalType": "address",
          "name": "industry",
          "type": "address"
        },
        {
          "internalType": "enum KYC.VerificationStatus",
          "name": "status",
          "type": "uint8"
        }
      ],
      "name": "verifyCertificate",
      "outputs": [],
      "stateMutability": "nonpayable",
      "type": "function"
    }
  ],
  "bytecode": "0x60806040526000805534801561001457600080fd5b506111a5806100246000396000f3fe608060405234801561001057600080fd5b50600436106100565760003560e01c806216e5261461005b5780630e2126b21461008e57806352d7b89c146100aa5780636b946e40146100c8578063aa209301146100f8575b600080fd5b61007560048036038101906100709190610833565b610114565b6040516100859493929190610976565b60405180910390f35b6100a860048036038101906100a391906109e7565b610219565b005b6100b2610425565b6040516100bf9190610a40565b60405180910390f35b6100e260048036038101906100dd9190610a87565b61042b565b6040516100ef9190610ab4565b60405180910390f35b610112600480360381019061010d9190610c04565b61046a565b005b600160205280600052604060002060009150905080600001805461013790610c7c565b80601f016020809104026020016040519081016040528092919081815260200182805461016390610c7c565b80156101b05780601f10610185576101008083540402835291602001916101b0565b820191906000526020600020905b81548152906001019060200180831161019357829003601f168201915b5050505050908060010160009054906101000a900460ff16908060010160019054906101000a900473ffffffffffffffffffffffffffffffffffffffff16908060020160009054906101000a900473ffffffffffffffffffffffffffffffffffffffff16905084565b816000600281111561022e5761022d6108f0565b5b600160008373ffffffffffffffffffffffffffffffffffffffff1673ffffffffffffffffffffffffffffffffffffffff16815260200190815260200160002060010160009054906101000a900460ff1660028111156102905761028f6108f0565b5b146102d0576040517f08c379a00000000000000000000000000000000000000000000000000000000081526004016102c790610d1f565b60405180910390fd5b81600160008573ffffffffffffffffffffffffffffffffffffffff1673ffffffffffffffffffffffffffffffffffffffff16815260200190815260200160002060010160006101000a81548160ff02191690836002811115610335576103346108f0565b5b021790555033600160008573ffffffffffffffffffffffffffffffffffffffff1673ffffffffffffffffffffffffffffffffffffffff16815260200190815260200160002060020160006101000a81548173ffffffffffffffffffffffffffffffffffffffff021916908373ffffffffffffffffffffffffffffffffffffffff1602179055508273ffffffffffffffffffffffffffffffffffffffff163373ffffffffffffffffffffffffffffffffffffffff167f773824696e363013fa0795129b6c117667f56a9e43b838c3ff076c2a0a80af76846040516104189190610d3f565b60405180910390a3505050565b60005481565b6002818154811061043b57600080fd5b906000526020600020016000915054906101000a900473ffffffffffffffffffffffffffffffffffffffff1681565b60008151116104ae576040517f08c379a00000000000000000000000000000000000000000000000000000000081526004016104a590610da6565b60405180910390fd5b600073ffffffffffffffffffffffffffffffffffffffff16600160003373ffffffffffffffffffffffffffffffffffffffff1673ffffffffffffffffffffffffffffffffffffffff16815260200190815260200160002060010160019054906101000a900473ffffffffffffffffffffffffffffffffffffffff1673ffffffffffffffffffffffffffffffffffffffff161461057f576040517f08c379a000000000000000000000000000000000000000000000000000000000815260040161057690610e38565b60405180910390fd5b6040518060800160405280828152602001600060028111156105a4576105a36108f0565b5b81526020013373ffffffffffffffffffffffffffffffffffffffff168152602001600073ffffffffffffffffffffffffffffffffffffffff16815250600160003373ffffffffffffffffffffffffffffffffffffffff1673ffffffffffffffffffffffffffffffffffffffff16815260200190815260200160002060008201518160000190816106349190611004565b5060208201518160010160006101000a81548160ff021916908360028111156106605761065f6108f0565b5b021790555060408201518160010160016101000a81548173ffffffffffffffffffffffffffffffffffffffff021916908373ffffffffffffffffffffffffffffffffffffffff16021790555060608201518160020160006101000a81548173ffffffffffffffffffffffffffffffffffffffff021916908373ffffffffffffffffffffffffffffffffffffffff16021790555090505060008081548092919061070890611105565b91905055506002339080600181540180825580915050600190039060005260206000200160009091909190916101000a81548173ffffffffffffffffffffffffffffffffffffffff021916908373ffffffffffffffffffffffffffffffffffffffff1602179055503373ffffffffffffffffffffffffffffffffffffffff167f896c7f89049b10206b235707d3d1d91257c12ae5da94321b04e39842d3c4e16b826040516107b6919061114d565b60405180910390a250565b6000604051905090565b600080fd5b600080fd5b600073ffffffffffffffffffffffffffffffffffffffff82169050919050565b6000610800826107d5565b9050919050565b610810816107f5565b811461081b57600080fd5b50565b60008135905061082d81610807565b92915050565b600060208284031215610849576108486107cb565b5b60006108578482850161081e565b91505092915050565b600081519050919050565b600082825260208201905092915050565b60005b8381101561089a57808201518184015260208101905061087f565b60008484015250505050565b6000601f19601f8301169050919050565b60006108c282610860565b6108cc818561086b565b93506108dc81856020860161087c565b6108e5816108a6565b840191505092915050565b7f4e487b7100000000000000000000000000000000000000000000000000000000600052602160045260246000fd5b600381106109305761092f6108f0565b5b50565b60008190506109418261091f565b919050565b600061095182610933565b9050919050565b61096181610946565b82525050565b610970816107f5565b82525050565b6000608082019050818103600083015261099081876108b7565b905061099f6020830186610958565b6109ac6040830185610967565b6109b96060830184610967565b95945050505050565b600381106109cf57600080fd5b50565b6000813590506109e1816109c2565b92915050565b600080604083850312156109fe576109fd6107cb565b5b6000610a0c8582860161081e565b9250506020610a1d858286016109d2565b9150509250929050565b6000819050919050565b610a3a81610a27565b82525050565b6000602082019050610a556000830184610a31565b92915050565b610a6481610a27565b8114610a6f57600080fd5b50565b600081359050610a8181610a5b565b92915050565b600060208284031215610a9d57610a9c6107cb565b5b6000610aab84828501610a72565b91505092915050565b6000602082019050610ac96000830184610967565b92915050565b600080fd5b600080fd5b7f4e487b7100000000000000000000000000000000000000000000000000000000600052604160045260246000fd5b610b11826108a6565b810181811067ffffffffffffffff82111715610b3057610b2f610ad9565b5b80604052505050565b6000610b436107c1565b9050610b4f8282610b08565b919050565b600067ffffffffffffffff821115610b6f57610b6e610ad9565b5b610b78826108a6565b9050602081019050919050565b82818337600083830152505050565b6000610ba7610ba284610b54565b610b39565b905082815260208101848484011115610bc357610bc2610ad4565b5b610bce848285610b85565b509392505050565b600082601f830112610beb57610bea610acf565b5b8135610bfb848260208601610b94565b91505092915050565b600060208284031215610c1a57610c196107cb565b5b600082013567ffffffffffffffff811115610c3857610c376107d0565b5b610c4484828501610bd6565b91505092915050565b7f4e487b7100000000000000000000000000000000000000000000000000000000600052602260045260246000fd5b60006002820490506001821680610c9457607f821691505b602082108103610ca757610ca6610c4d565b5b50919050565b7f4b59433a204365727469666963617465206e6f742070656e64696e672076657260008201527f696669636174696f6e0000000000000000000000000000000000000000000000602082015250565b6000610d0960298361086b565b9150610d1482610cad565b604082019050919050565b60006020820190508181036000830152610d3881610cfc565b9050919050565b6000602082019050610d546000830184610958565b92915050565b7f4b59433a20495046532055524c2063616e6e6f7420626520656d707479000000600082015250565b6000610d90601d8361086b565b9150610d9b82610d5a565b602082019050919050565b60006020820190508181036000830152610dbf81610d83565b9050919050565b7f4b59433a20436572746966696361746520616c7265616479207375626d69747460008201527f6564000000000000000000000000000000000000000000000000000000000000602082015250565b6000610e2260228361086b565b9150610e2d82610dc6565b604082019050919050565b60006020820190508181036000830152610e5181610e15565b9050919050565b60008190508160005260206000209050919050565b60006020601f8301049050919050565b600082821b905092915050565b600060088302610eba7fffffffffffffffffffffffffffffffffffffffffffffffffffffffffffffffff82610e7d565b610ec48683610e7d565b95508019841693508086168417925050509392505050565b6000819050919050565b6000610f01610efc610ef784610a27565b610edc565b610a27565b9050919050565b6000819050919050565b610f1b83610ee6565b610f2f610f2782610f08565b848454610e8a565b825550505050565b600090565b610f44610f37565b610f4f818484610f12565b505050565b5b81811015610f7357610f68600082610f3c565b600181019050610f55565b5050565b601f821115610fb857610f8981610e58565b610f9284610e6d565b81016020851015610fa1578190505b610fb5610fad85610e6d565b830182610f54565b50505b505050565b600082821c905092915050565b6000610fdb60001984600802610fbd565b1980831691505092915050565b6000610ff48383610fca565b9150826002028217905092915050565b61100d82610860565b67ffffffffffffffff81111561102657611025610ad9565b5b6110308254610c7c565b61103b828285610f77565b600060209050601f83116001811461106e576000841561105c578287015190505b6110668582610fe8565b8655506110ce565b601f19841661107c86610e58565b60005b828110156110a45784890151825560018201915060208501945060208101905061107f565b868310156110c157848901516110bd601f891682610fca565b8355505b6001600288020188555050505b505050505050565b7f4e487b7100000000000000000000000000000000000000000000000000000000600052601160045260246000fd5b600061111082610a27565b91507fffffffffffffffffffffffffffffffffffffffffffffffffffffffffffffffff8203611142576111416110d6565b5b600182019050919050565b6000602082019050818103600083015261116781846108b7565b90509291505056fea2646970667358221220290ccd544cca230cac66b6d8d5fcaeeee5dd153a37c678f337c167bedfbb31a664736f6c63430008180033",
  "linkReferences": {},
  "deployedLinkReferences": {}
}