{
  "_format": "hh-sol-artifact-1",
  "contractName": "UserAuth",
  "sourceName": "contracts/UserAuth.sol",
  "abi": [
    {
      "anonymous": false,
      "inputs": [
        {
          "indexed": true,
          "internalType": "address",
          "name": "walletId",
          "type": "address"
        },
        {
          "indexed": true,
          "internalType": "string",
          "name": "name",
          "type": "string"
        },
        {
          "indexed": true,
          "internalType": "string",
          "name": "privilege",
          "type": "string"
        },
        {
          "indexed": false,
          "internalType": "string",
          "name": "authority",
          "type": "string"
        }
      ],
      "name": "UserRegistered",
      "type": "event"
    },
    {
      "inputs": [
        {
          "internalType": "address",
          "name": "",
          "type": "address"
        }
      ],
      "name": "Users",
      "outputs": [
        {
          "internalType": "string",
          "name": "name",
          "type": "string"
        },
        {
          "internalType": "string",
          "name": "privilege",
          "type": "string"
        },
        {
          "internalType": "string",
          "name": "authority",
          "type": "string"
        }
      ],
      "stateMutability": "view",
      "type": "function"
    },
    {
      "inputs": [
        {
          "internalType": "address",
          "name": "_userAddress",
          "type": "address"
        }
      ],
      "name": "checkUserExists",
      "outputs": [
        {
          "internalType": "bool",
          "name": "",
          "type": "bool"
        }
      ],
      "stateMutability": "view",
      "type": "function"
    },
    {
      "inputs": [
        {
          "internalType": "address",
          "name": "_walletId",
          "type": "address"
        },
        {
          "internalType": "string",
          "name": "_name",
          "type": "string"
        },
        {
          "internalType": "string",
          "name": "_privilege",
          "type": "string"
        },
        {
          "internalType": "string",
          "name": "_authority",
          "type": "string"
        }
      ],
      "name": "setUser",
      "outputs": [],
      "stateMutability": "nonpayable",
      "type": "function"
    },
    {
      "inputs": [],
      "name": "userCount",
      "outputs": [
        {
          "internalType": "uint256",
          "name": "",
          "type": "uint256"
        }
      ],
      "stateMutability": "view",
      "type": "function"
    }
  ],
  "bytecode": "0x608060405234801561001057600080fd5b50610f2c806100206000396000f3fe608060405234801561001057600080fd5b506004361061004c5760003560e01c806307973ccf14610051578063133f50f51461006f5780631d201a891461009f57806399b956a0146100bb575b600080fd5b6100596100ed565b60405161006691906105c7565b60405180910390f35b61008960048036038101906100849190610654565b6100f3565b604051610096919061069c565b60405180910390f35b6100b960048036038101906100b491906107fd565b6102b4565b005b6100d560048036038101906100d09190610654565b6103ec565b6040516100e493929190610937565b60405180910390f35b60005481565b6000604051602001610104906109da565b60405160208183030381529060405280519060200120600160008473ffffffffffffffffffffffffffffffffffffffff1673ffffffffffffffffffffffffffffffffffffffff16815260200190815260200160002060010160405160200161016c9190610ae7565b604051602081830303815290604052805190602001201480610218575060405160200161019890610b4a565b60405160208183030381529060405280519060200120600160008473ffffffffffffffffffffffffffffffffffffffff1673ffffffffffffffffffffffffffffffffffffffff1681526020019081526020016000206001016040516020016102009190610ae7565b60405160208183030381529060405280519060200120145b806102ad575060405160200161022d90610bab565b60405160208183030381529060405280519060200120600160008473ffffffffffffffffffffffffffffffffffffffff1673ffffffffffffffffffffffffffffffffffffffff1681526020019081526020016000206001016040516020016102959190610ae7565b60405160208183030381529060405280519060200120145b9050919050565b604051806060016040528084815260200183815260200182815250600160008673ffffffffffffffffffffffffffffffffffffffff1673ffffffffffffffffffffffffffffffffffffffff16815260200190815260200160002060008201518160000190816103239190610d57565b5060208201518160010190816103399190610d57565b50604082015181600201908161034f9190610d57565b5090505060016000808282546103659190610e58565b925050819055508160405161037a9190610ebd565b6040518091039020836040516103909190610ebd565b60405180910390208573ffffffffffffffffffffffffffffffffffffffff167f509c70f523067009f7db7f46db6956d7af8b679323680dc3821a8bad001ac1e1846040516103de9190610ed4565b60405180910390a450505050565b600160205280600052604060002060009150905080600001805461040f90610a1e565b80601f016020809104026020016040519081016040528092919081815260200182805461043b90610a1e565b80156104885780601f1061045d57610100808354040283529160200191610488565b820191906000526020600020905b81548152906001019060200180831161046b57829003601f168201915b50505050509080600101805461049d90610a1e565b80601f01602080910402602001604051908101604052809291908181526020018280546104c990610a1e565b80156105165780601f106104eb57610100808354040283529160200191610516565b820191906000526020600020905b8154815290600101906020018083116104f957829003601f168201915b50505050509080600201805461052b90610a1e565b80601f016020809104026020016040519081016040528092919081815260200182805461055790610a1e565b80156105a45780601f10610579576101008083540402835291602001916105a4565b820191906000526020600020905b81548152906001019060200180831161058757829003601f168201915b5050505050905083565b6000819050919050565b6105c1816105ae565b82525050565b60006020820190506105dc60008301846105b8565b92915050565b6000604051905090565b600080fd5b600080fd5b600073ffffffffffffffffffffffffffffffffffffffff82169050919050565b6000610621826105f6565b9050919050565b61063181610616565b811461063c57600080fd5b50565b60008135905061064e81610628565b92915050565b60006020828403121561066a576106696105ec565b5b60006106788482850161063f565b91505092915050565b60008115159050919050565b61069681610681565b82525050565b60006020820190506106b1600083018461068d565b92915050565b600080fd5b600080fd5b6000601f19601f8301169050919050565b7f4e487b7100000000000000000000000000000000000000000000000000000000600052604160045260246000fd5b61070a826106c1565b810181811067ffffffffffffffff82111715610729576107286106d2565b5b80604052505050565b600061073c6105e2565b90506107488282610701565b919050565b600067ffffffffffffffff821115610768576107676106d2565b5b610771826106c1565b9050602081019050919050565b82818337600083830152505050565b60006107a061079b8461074d565b610732565b9050828152602081018484840111156107bc576107bb6106bc565b5b6107c784828561077e565b509392505050565b600082601f8301126107e4576107e36106b7565b5b81356107f484826020860161078d565b91505092915050565b60008060008060808587031215610817576108166105ec565b5b60006108258782880161063f565b945050602085013567ffffffffffffffff811115610846576108456105f1565b5b610852878288016107cf565b935050604085013567ffffffffffffffff811115610873576108726105f1565b5b61087f878288016107cf565b925050606085013567ffffffffffffffff8111156108a05761089f6105f1565b5b6108ac878288016107cf565b91505092959194509250565b600081519050919050565b600082825260208201905092915050565b60005b838110156108f25780820151818401526020810190506108d7565b60008484015250505050565b6000610909826108b8565b61091381856108c3565b93506109238185602086016108d4565b61092c816106c1565b840191505092915050565b6000606082019050818103600083015261095181866108fe565b9050818103602083015261096581856108fe565b9050818103604083015261097981846108fe565b9050949350505050565b600081905092915050565b7f676f7665726e6d656e7400000000000000000000000000000000000000000000600082015250565b60006109c4600a83610983565b91506109cf8261098e565b600a82019050919050565b60006109e5826109b7565b9150819050919050565b7f4e487b7100000000000000000000000000000000000000000000000000000000600052602260045260246000fd5b60006002820490506001821680610a3657607f821691505b602082108103610a4957610a486109ef565b5b50919050565b60008190508160005260206000209050919050565b60008154610a7181610a1e565b610a7b8186610983565b94506001821660008114610a965760018114610aab57610ade565b60ff1983168652811515820286019350610ade565b610ab485610a4f565b60005b83811015610ad657815481890152600182019150602081019050610ab7565b838801955050505b50505092915050565b6000610af38284610a64565b915081905092915050565b7f696e647573747279000000000000000000000000000000000000000000000000600082015250565b6000610b34600883610983565b9150610b3f82610afe565b600882019050919050565b6000610b5582610b27565b9150819050919050565b7f696e646976696475616c00000000000000000000000000000000000000000000600082015250565b6000610b95600a83610983565b9150610ba082610b5f565b600a82019050919050565b6000610bb682610b88565b9150819050919050565b60006020601f8301049050919050565b600082821b905092915050565b600060088302610c0d7fffffffffffffffffffffffffffffffffffffffffffffffffffffffffffffffff82610bd0565b610c178683610bd0565b95508019841693508086168417925050509392505050565b6000819050919050565b6000610c54610c4f610c4a846105ae565b610c2f565b6105ae565b9050919050565b6000819050919050565b610c6e83610c39565b610c82610c7a82610c5b565b848454610bdd565b825550505050565b600090565b610c97610c8a565b610ca2818484610c65565b505050565b5b81811015610cc657610cbb600082610c8f565b600181019050610ca8565b5050565b601f821115610d0b57610cdc81610a4f565b610ce584610bc0565b81016020851015610cf4578190505b610d08610d0085610bc0565b830182610ca7565b50505b505050565b600082821c905092915050565b6000610d2e60001984600802610d10565b1980831691505092915050565b6000610d478383610d1d565b9150826002028217905092915050565b610d60826108b8565b67ffffffffffffffff811115610d7957610d786106d2565b5b610d838254610a1e565b610d8e828285610cca565b600060209050601f831160018114610dc15760008415610daf578287015190505b610db98582610d3b565b865550610e21565b601f198416610dcf86610a4f565b60005b82811015610df757848901518255600182019150602085019450602081019050610dd2565b86831015610e145784890151610e10601f891682610d1d565b8355505b6001600288020188555050505b505050505050565b7f4e487b7100000000000000000000000000000000000000000000000000000000600052601160045260246000fd5b6000610e63826105ae565b9150610e6e836105ae565b9250828201905080821115610e8657610e85610e29565b5b92915050565b6000610e97826108b8565b610ea18185610983565b9350610eb18185602086016108d4565b80840191505092915050565b6000610ec98284610e8c565b915081905092915050565b60006020820190508181036000830152610eee81846108fe565b90509291505056fea2646970667358221220896692be98719c00d0b863ae29f99d66be86665c2e028c62c91b84bd3646a91864736f6c63430008180033",
  "linkReferences": {},
  "deployedLinkReferences": {}
}